:100000000C942A000C943F000C943F000C943F0089
:100010000C943F000C943F000C943F000C943F0064
:100020000C943F000C943F000C943F000C943F0054
:100030000C943F000C943F000C943F000C943F0044
:100040000C943F000C943F000C943F000C943F0034
:100050000C943F0011241FBECFE5D8E0DEBFCDBF1A
:1000600010E0A0E6B0E0EEECFFE002C005900D92DB
:10007000AC38B107D9F70E942F010C94E5070C9416
:10008000000080FF02C0C29A01C0C29881FF02C076
:10009000C39A01C0C39882FF02C0C49A01C0C49829
:1000A00083FF02C0C59A0895C59808951F93182F1D
:1000B000C19A82958F700E944100C198C19A812F88
:1000C0000E944100C19885E88A95F1F71F91089533
:1000D000C0980E9456000895C09A0E945600089544
:1000E000CF93DF93EC0103C021960E946C008881BE
:1000F0008823D1F7DF91CF9108956295660F660F3F
:10010000607C680F862F80680E946800089581E0F7
:100110000E94680080EA9FE00197F1F7089582E06D
:100120000E94680080EA9FE00197F1F708951F930D
:10013000CF93DF93BA9ABB9ABC9ABD9AB99AB89AF0
:1001400080E395E70197F1F7C098C19810E0C0E10E
:10015000D7E2C19A83E00E944100C198CE01019785
:10016000F1F71F5F1330A9F7C19A82E00E944100A6
:10017000C19880ED97E00197F1F788E20E9468004E
:1001800088E00E94680081E00E94680080EA9FE0A9
:100190000197F1F786E00E9468008CE00E946800F9
:1001A000DF91CF911F910895CF93DF938C9A8D9A11
:1001B0008E9A8F9A889889988A988B988FEF82BBAD
:1001C00050E067E070E041E0C1E0D0E0A8ECB0E0D2
:1001D00082B39E01062E02C0220F331F0A94E2F75B
:1001E000922F9095982392BB809909C080ED97E05B
:1001F000FD013197F1F70197D9F7542F23C0819969
:100200000AC080ED97E0FD013197F1F70197D9F72A
:10021000542F5C5F17C082990AC080ED97E0FD0102
:100220003197F1F70197D9F7542F585F0BC0839995
:1002300009C080ED97E0FD013197F1F70197D9F7FB
:10024000542F545F82B3282B22BB4F5F453019F0E7
:1002500061507040BDCF852FDF91CF9108952F92CF
:100260003F924F925F926F927F928F929F92AF9246
:10027000BF92CF92DF92EF92FF920F931F93DF9383
:10028000CF93CDB7DEB728970FB6F894DEBF0FBE79
:10029000CDBF0E9497000E948F001C821D821E828B
:1002A0001F82CC24CA94DC2CAA24AA94BA2C7E01E6
:1002B0000894E11CF11CE4E08E2E912C8C0E9D1E06
:1002C0000E94870000E075E0372E64E0562E53E070
:1002D000452E42E0742E662463940E94D400182FA9
:1002E000802F60E00E947D001E3069F4C70160E647
:1002F00070E00E940605C7010E947000F401E00F43
:10030000F11D10820EC0193071F4C70162E670E071
:100310000E940605C7010E947000F401E00FF11D64
:1003200060820F5F98C01A3069F4C70164E670E01C
:100330000E940605C7010E947000F401E00FF11D44
:100340007082EFCF1B3069F4C70166E670E00E944F
:100350000605C7010E947000F401E00FF11D408204
:10036000E0CF153069F4C70168E670E00E94060529
:10037000C7010E947000F401E00FF11D5082D1CF3F
:10038000163069F4C7016AE670E00E940605C701ED
:100390000E947000F401E00FF11D3082C2CF1730CF
:1003A00071F4C7016CE670E00E940605C7010E9467
:1003B0007000F401E00FF11D86E08083B2CF1130B0
:1003C00071F4C7016EE670E00E940605C7010E9445
:1003D0007000F401E00FF11D97E09083A2CF12307E
:1003E00071F4C70160E770E00E940605C7010E9432
:1003F0007000F401E00FF11DA8E0A08392CF13304C
:1004000071F4C70162E770E00E940605C7010E940F
:100410007000F401E00FF11DB9E0B08382CF183015
:1004200061F4C70164E770E00E940605C7010E94FD
:100430007000902FEBE2E8872DC0143061F4C70103
:1004400066E770E00E940605C7010E947000902FC9
:10045000FDE2F8871FC0043009F03FCF0E94D400AE
:10046000883059F4C70164E770E00E940605C701AF
:100470000E9470008BE2888736C0843079F7C7010C
:1004800066E770E00E940605C7010E9470009DE2C9
:10049000988729C0013021F48C81C82EDD2440C00A
:1004A000023051F48C819AE0899F600111248D8182
:1004B000C80ED11C92E034C0033089F49C8184E6DC
:1004C000989F600111248D812AE0829FC001112430
:1004D000C80ED91E8E81C80ED11C93E021C00430F5
:1004E00011F0902F1DC08C8190E028EE33E0829FA8
:1004F0006001839FD00C929FD00C11248D8124E643
:10050000829FC0011124C80ED91E8F81C80ED11C34
:100510008E812AE0829FC0011124C80ED91E94E06A
:10052000D4011D921D921D921C92139700E0792E0A
:10053000739435E0232E24E0422E93E0392E82E09E
:10054000582E662463940E94D400182F872D800FA4
:1005500060E00E947D001E3069F4C70160E670E033
:100560000E940605C7010E947000F401E00FF11D12
:1005700010820EC0193071F4C70162E670E00E946B
:100580000605C7010E947000F401E00FF11D6082B2
:100590000F5F89C01A3069F4C70164E670E00E94F9
:1005A0000605C7010E947000F401E00FF11D5082A2
:1005B000EFCF1B3069F4C70166E670E00E940605C4
:1005C000C7010E947000F401E00FF11D3082E0CFFE
:1005D000153069F4C70168E670E00E940605C7019E
:1005E0000E947000F401E00FF11D4082D1CF16305F
:1005F00069F4C7016AE670E00E940605C7010E941F
:100600007000F401E00FF11D2082C2CF173071F4A9
:10061000C7016CE670E00E940605C7010E947000E9
:10062000F401E00FF11DB6E0B083B2CF113071F4E8
:10063000C7016EE670E00E940605C7010E947000C7
:10064000F401E00FF11D87E08083A2CF123071F436
:10065000C70160E770E00E940605C7010E947000B4
:10066000F401E00FF11D98E0908392CF133071F404
:10067000C70162E770E00E940605C7010E94700092
:10068000F401E00FF11DA9E0A08382CF103159F4ED
:10069000C70168E770E00E940605C7010E9470006C
:1006A000013089F014C0043009F04DCF0E94D4000D
:1006B0008031E1F7C70168E770E00E940605C701D5
:1006C0000E94700021C08C81A82EBB2439C002304A
:1006D00039F48C819AE0899F500111248D810FC0DB
:1006E000033081F49C8184E6989F500111248D8110
:1006F0002AE0829FC0011124A80EB91E8E81A80E87
:10070000B11C1EC00430E1F48C8190E028EE33E08F
:10071000829F5001839FB00C929FB00C11248D8159
:1007200024E6829FC0011124A80EB91E8F81A80E55
:10073000B11C8E812AE0829FC0011124A80EB91E2F
:10074000F401108211821282138280E061E00E9423
:100750007D00F885FB32A1F400D000D000D0EDB7C9
:10076000FEB73196ADB7BEB71296FC92EE921197D6
:100770008AE790E093838283C5018C0D9D1D16C08E
:10078000B885BD3211F500D000D000D0EDB7FEB76E
:100790003196ADB7BEB71296FC92EE9211978AE7EA
:1007A00090E093838283C6018A199B099583848391
:1007B0000E940D05ADB7BEB716960FB6F894BEBF32
:1007C0000FBEADBFC7010E9470000E94D4008031EF
:1007D000E1F776CD4F925F926F927F928F929F92C8
:1007E000AF92BF92DF92EF92FF920F931F93DF932E
:1007F000CF93CDB7DEB764970FB6F894DEBF0FBEC8
:10080000CDBF8C9A8D9A8E9A8F9A889889988A985B
:100810008B988FEF82BB80E061E00E947D000E9498
:10082000870040E001E010E088E0482E512CB1E064
:100830006B2E712C7E010894E11CF11CADE78A2E11
:10084000A0E09A2EF8ECAF2EB12C82B39201201BBF
:10085000310BB30102C0660F771F2A95E2F7D62E3F
:10086000962F9095982392BB809927C000D000D0F6
:1008700000D0EDB7FEB73196ADB7BEB71296FC9279
:10088000EE92119793828282158304830E940D0554
:100890006DB77EB76A5F7F4F0FB6F8947EBF0FBE0D
:1008A0006DBFC7010E94700084EF91E0F5013197A0
:1008B000F1F70197D9F7402F89C081992CC000D05A
:1008C00000D000D0EDB7FEB73196ADB7BEB71296E7
:1008D000FC92EE921197938282820C5F1F4F1583D8
:1008E0000483045010400E940D056DB77EB76A5F07
:1008F0007F4F0FB6F8947EBF0FBE6DBFC7010E9439
:10090000700084EF91E0F5013197F1F70197D9F785
:10091000402F4C5F5BC082992CC000D000D000D02B
:10092000EDB7FEB73196ADB7BEB71296FC92EE9218
:10093000119793828282085F1F4F158304830850AA
:1009400010400E940D056DB77EB76A5F7F4F0FB6EE
:10095000F8947EBF0FBE6DBFC7010E94700084EF88
:1009600091E0F5013197F1F70197D9F7402F485FF2
:100970002DC083992BC000D000D000D0EDB7FEB7BA
:100980003196ADB7BEB71296FC92EE921197938254
:100990008282045F1F4F158304830C5010400E9415
:1009A0000D056DB77EB76A5F7F4F0FB6F8947EBFB7
:1009B0000FBE6DBFC7010E94700084EF91E0F5018A
:1009C0003197F1F70197D9F7402F445F82B3D82AC6
:1009D000D2BA0F5F1F4F0530110509F036CF842FB3
:1009E00064960FB6F894DEBF0FBECDBFCF91DF91F6
:1009F0001F910F91FF90EF90DF90BF90AF909F906D
:100A00008F907F906F905F904F900895FB01DC0175
:100A100001900D920020E1F70895AEE0B0E0E3E12F
:100A2000F5E00C94BC070D891E8986E08C831A833F
:100A300009838FEF9FE79E838D839E01275E3F4F43
:100A4000CE0101966F89788DA9010E9431052F8111
:100A50003885020F131FF80110822E96E4E00C94E3
:100A6000D807ABE0B0E0E7E3F5E00C94AE073C015B
:100A70002B015A01FC0117821682838181FD03C07C
:100A80006FEF7FEFC6C19AE0892E1E010894211CEA
:100A9000311CF3012381F20123FD859123FF819114
:100AA0002F01882309F4B2C1853239F423FD8591E1
:100AB00023FF81912F01853229F490E0B3010E9438
:100AC0002407E7CF982FFF24EE249924FFE1FF1598
:100AD000D0F09B3269F09C3228F4903259F0933276
:100AE00091F40EC09D3249F0903369F441E024C086
:100AF00052E0F52A84E0F82A28C098E0F92A25C0B7
:100B0000E0E1FE2A22C0F7FC29C0892F80538A30F9
:100B100070F4F6FE05C0989C902C1124980E15C018
:100B2000E89CE02C1124E80EF0E2FF2A0EC09E3271
:100B300029F4F6FC6BC140E4F42A07C09C3619F492
:100B400050E8F52A02C0983649F4F20123FD959148
:100B500023FF91912F01992309F0B8CF892F855454
:100B6000833018F08052833038F444E050E0A40E13
:100B7000B51E5FE359830FC0933631F0933779F098
:100B8000933509F056C020C0F5018081898342E089
:100B900050E0A40EB51E610101E010E012C0F501A5
:100BA000C080D180F6FC03C06FEF7FEF02C0692DDB
:100BB00070E042E050E0A40EB51EC6010E94190785
:100BC0008C015FE7F52214C0F501C080D180F6FCEE
:100BD00003C06FEF7FEF02C0692D70E042E050E08C
:100BE000A40EB51EC6010E940E078C0150E8F52A1E
:100BF000F3FE07C01AC080E290E0B3010E94240710
:100C0000EA948E2D90E008171907A8F30EC0F6019C
:100C1000F7FC8591F7FE81916F0190E0B3010E948E
:100C20002407E110EA94015010400115110579F7ED
:100C3000EAC0943611F0993669F5F7FE08C0F5015F
:100C4000208131814281538184E090E00AC0F50126
:100C5000808191819C01442737FD4095542F82E08B
:100C600090E0A80EB91E9FE6F92257FF09C05095E3
:100C70004095309521953F4F4F4F5F4FE0E8FE2A5A
:100C8000CA01B901A1012AE030E00E945007D82E24
:100C9000D21840C0953729F41F2D1F7E2AE030E07E
:100CA0001DC01F2D197F9F3661F0903720F49835B5
:100CB00009F0ACC00FC0903739F0983709F0A6C0E2
:100CC00004C028E030E00AC0106114FD146020E187
:100CD00030E004C014FD166020E132E017FF08C0C8
:100CE000F501608171818281938144E050E008C008
:100CF000F50180819181BC0180E090E042E050E00C
:100D0000A40EB51EA1010E945007D82ED2188FE75D
:100D1000F82EF122F6FE0BC05EEFF522D91438F45E
:100D2000F4FE07C0F2FC05C08FEEF82202C01D2DB4
:100D300001C0192DF4FE0DC0FE01ED0DF11D8081E5
:100D4000803319F499EEF92208C01F5FF2FE05C046
:100D500003C08F2D867809F01F5F0F2DF3FC14C0A0
:100D6000F0FE0FC01E1510F09D2C0BC09D2C9E0C8C
:100D7000911A1E2D06C080E290E0B3010E94240764
:100D80001F5F1E15C0F304C01E1510F4E11A01C048
:100D9000EE2404FF0FC080E390E0B3010E9424071B
:100DA00002FF1DC001FD03C088E790E00EC088E58A
:100DB00090E00BC0802F867891F001FF02C08BE29B
:100DC00001C080E2F7FC8DE290E0B3010E942407AD
:100DD00006C080E390E0B3010E9424079A94D914DE
:100DE000C0F3DA94F101ED0DF11D808190E0B301C3
:100DF0000E942407DD20A9F706C080E290E0B3013D
:100E00000E942407EA94EE20C1F743CEF3016681E5
:100E10007781CB012B96E2E10C94CA07FC01059087
:100E2000615070400110D8F7809590958E0F9F1FEC
:100E30000895FC016150704001900110D8F7809531
:100E400090958E0F9F1F08950F931F93CF93DF935D
:100E50008C01EB018B8181FF1BC082FF0DC02E81B5
:100E60003F818C819D812817390764F4E881F981DD
:100E70000193F983E88306C0E885F985802F0995F9
:100E8000892B31F48E819F8101969F838E8302C0CE
:100E90000FEF1FEFC801DF91CF911F910F910895C0
:100EA000FA01AA27283051F1203181F1E8946F939B
:100EB0006E7F6E5F7F4F8F4F9F4FAF4FB1E03ED041
:100EC000B4E03CD0670F781F891F9A1FA11D680FDF
:100ED000791F8A1F911DA11D6A0F711D811D911D12
:100EE000A11D20D009F468943F912AE0269F112487
:100EF0003019305D3193DEF6CF010895462F4770EB
:100F0000405D4193B3E00FD0C9F7F6CF462F4F7045
:100F1000405D4A3318F0495D31FD4052419302D0A3
:100F2000A9F7EACFB4E0A695979587957795679549
:100F3000BA95C9F700976105710508959B01AC0149
:100F40000A2E06945795479537952795BA95C9F770
:100F5000620F731F841F951FA01D08952F923F924B
:100F60004F925F926F927F928F929F92AF92BF92B9
:100F7000CF92DF92EF92FF920F931F93CF93DF9365
:100F8000CDB7DEB7CA1BDB0B0FB6F894DEBF0FBEC2
:100F9000CDBF09942A88398848885F846E847D840F
:100FA0008C849B84AA84B984C884DF80EE80FD8011
:100FB0000C811B81AA81B981CE0FD11D0FB6F89487
:0E0FC000DEBF0FBECDBFED010895F894FFCF48
:100FCE003000310032003300340035003600370077
:100FDE00380039002B002D003D0025640057636951
:0C0FEE00736E6965746F3A202564000082
:00000001FF
