:100000000C942A000C9447000C9447000C94470071
:100010000C9447000C9447000C9447000C947D000E
:100020000C9447000C9447000C9447000C94470034
:100030000C9447000C9447000C9447000C94470024
:100040000C9447000C9447000C9447000C94470014
:100050000C94470011241FBECFE5D8E0DEBFCDBF12
:1000600010E0A0E6B0E0E2E2F1E002C005900D92FF
:10007000AA36B107D9F710E0AAE6B0E001C01D9298
:10008000A237B107E1F70E9462000C948F000C9434
:1000900000008EB588608EBD8EB584608EBD89E00F
:1000A0009DE39BBD8ABD89B7806189BF08958FEFAD
:1000B00084BB15BA0895E0E6F0E0E80FF11D8081F9
:1000C00085BB08950E9449008FEF84BB15BA7894D0
:1000D00020E048EC50E0E22FF0E0E05AFF4F808152
:1000E00085BB80E197E2FA013197F1F70197D9F7E3
:1000F0002F5F2A3080F320E0EECF1F920F920FB6D1
:100100000F9211248F939F9388B391E0892788BB26
:100110009F918F910F900FBE0F901F901895F8949C
:02012000FFCF0F
:0A0122007E306D79335B5F707F7BE8
:00000001FF
