:100000000C942A000C943F000C943F000C943F0089
:100010000C943F000C943F000C943F000C943F0064
:100020000C943F000C943F000C943F000C943F0054
:100030000C943F000C943F000C943F000C943F0044
:100040000C943F000C943F000C943F000C943F0034
:100050000C943F0011241FBECFE5D8E0DEBFCDBF1A
:1000600011E0A0E6B0E0EAE2F7E102C005900D92EF
:10007000AC37B107D9F70E9460070C94930B0C942E
:100080000000EF92FF920F931F937B018C0120E001
:1000900030E040E05FE40E94BD0388238CF0C8019B
:1000A000B70120E030E040E05FE40E94B9010E9427
:1000B0004B049B01AC01205030404040504806C0EA
:1000C000C801B7010E944B049B01AC01B901CA01F0
:1000D0001F910F91FF90EF900895A0E0B0E0E3E74B
:1000E000F0E00C943808DC012B01FA019C9192306D
:1000F00008F439C1EB018881823008F433C19430AF
:1001000069F4843009F02FC111969C91119789816F
:10011000981709F428C1A4E7B0E025C1843009F498
:1001200021C18230A9F4923009F01DC19A01AD01BC
:1001300088E0EA010990AE01E90109929E0181502F
:10014000C1F7E201898111969C918923818308C1BD
:10015000923009F407C112962D903C901397EB0151
:100160008A819B811496AD90BD90CD90DC901797BD
:10017000EC80FD800E811F819101281B390BB90194
:1001800037FF04C066277727621B730B6032710547
:100190000CF061C0121613066CF537014801062EEB
:1001A00004C096948794779467940A94D2F721E0D8
:1001B00030E040E050E004C0220F331F441F551FC1
:1001C0006A95D2F721503040404050402E213F21C7
:1001D00040235123211531054105510521F021E02E
:1001E00030E040E050E079018A01E628F72808294C
:1001F00019293CC0232BD1F1260E371E35014601AB
:10020000062E04C096948794779467940A94D2F744
:1002100021E030E040E050E004C0220F331F441FD3
:10022000551F6A95D2F721503040404050402A2156
:100230003B214C215D21211531054105510521F05E
:1002400021E030E040E050E059016A01A628B728DB
:10025000C828D9280BC0821593052CF01C01AA24AC
:10026000BB24650103C0EE24FF24870111969C91F5
:10027000D20111968C91981709F445C0992339F051
:10028000A80197012A193B094C095D0906C0A6017E
:1002900095012E193F09400B510B57FD08C01182E3
:1002A0003382228224833583468357831DC081E0B5
:1002B00081833382228288279927DC01821B930B5A
:1002C000A40BB50B84839583A683B7830DC0220F3F
:1002D000331F441F551F24833583468357838281F0
:1002E000938101979383828324813581468157814D
:1002F000DA01C9010197A109B1098F5F9F4FAF4F83
:10030000BF4328F30BC0918333822282EA0CFB1C8B
:100310000C1D1D1DE482F5820683178383E0808314
:10032000248135814681578157FF1AC0C901AA2708
:1003300097FDA095BA2F81709070A070B0705695FF
:10034000479537952795822B932BA42BB52B848328
:100350009583A683B7838281938101969383828359
:10036000DF0101C0D201CD01CDB7DEB7E2E10C94CF
:100370005408A0E2B0E0EFEBF1E00C94440869838C
:100380007A838B839C832D833E834F835887E9E058
:10039000EE2EF12CEC0EFD1ECE010196B7010E944F
:1003A000C3058E010F5E1F4FCE010596B8010E9456
:1003B000C3058A8991E089278A8BC701B801AE01FC
:1003C000475E5F4F0E946D000E94EE04A096E6E03B
:1003D0000C946008A0E2B0E0E0EFF1E00C94440877
:1003E00069837A838B839C832D833E834F835887D5
:1003F000F9E0EF2EF12CEC0EFD1ECE010196B701B7
:100400000E94C3058E010F5E1F4FCE010596B801F5
:100410000E94C305C701B801AE01475E5F4F0E944D
:100420006D000E94EE04A096E6E00C946008A0E245
:10043000B0E0EDE1F2E00C94380869837A838B83B5
:100440009C832D833E834F835887CE010196BE0146
:10045000675F7F4F0E94C305CE010596BE016F5EA8
:100460007F4F0E94C3059985923088F08989823038
:10047000C8F0943019F4823051F404C0843029F467
:10048000923081F484E790E0C6C0923049F420E0D5
:100490009A858A89981321E02A87CE010996BBC0E4
:1004A000823049F420E09A858A89981321E02A8BCA
:1004B000CE014196B0C02D843E844F8458886D880B
:1004C0007E888F88988CEE24FF248701AA24BB2481
:1004D000650140E050E060E070E0E0E0F0E0C10184
:1004E00081709070892BE9F0E60CF71C081D191D2E
:1004F0009A01AB012A0D3B1D4C1D5D1D80E090E073
:10050000A0E0B0E0E614F7040805190520F481E046
:1005100090E0A0E0B0E0BA01A901480F591F6A1F9E
:100520007B1FAA0CBB1CCC1CDD1C97FE08C081E005
:1005300090E0A0E0B0E0A82AB92ACA2ADB2A3196C6
:10054000E032F10549F0660C771C881C991C569422
:10055000479437942794C3CFFA85EA892B893C893D
:100560008B859C85280F391F2E5F3F4F17C0CA010E
:1005700081709070892B61F016950795F794E79438
:1005800080E090E0A0E0B0E8E82AF92A0A2B1B2BD3
:1005900076956795579547952F5F3F4F77FDE7CF46
:1005A0000CC0440F551F661F771F17FD4160EE0CEE
:1005B000FF1C001F111F21503040403090E05907B0
:1005C00090E0690790E4790760F32B8F3C8FDB01A3
:1005D000CA018F779070A070B07080349105A1052A
:1005E000B10561F447FD0AC0E114F10401051105EC
:1005F00029F0405C5F4F6F4F7F4F40781A8EFE1797
:1006000011F081E08A8F4D8F5E8F6F8F78A383E02A
:10061000898FCE0149960E94EE04A096E2E10C94E7
:100620005408A8E1B0E0E7E1F3E00C9440086983E6
:100630007A838B839C832D833E834F835887B9E0D5
:10064000EB2EF12CEC0EFD1ECE010196B7010E949F
:10065000C3058E010F5E1F4FCE010596B8010E94A3
:10066000C3052985223008F47EC03989323010F460
:10067000B8017CC08A859A8989278A87243011F03D
:10068000223031F4231709F06EC064E770E06EC0C9
:10069000343039F41D861E861F86188A1C861B86F8
:1006A00004C0323021F484E08987B7015FC02B8514
:1006B0003C858B899C89281B390B3C872B87ED84D3
:1006C000FE840F851889AD88BE88CF88D88CEA143F
:1006D000FB040C051D0540F4EE0CFF1C001F111F50
:1006E000215030403C872B8720E030E040E050E054
:1006F00080E090E0A0E0B0E460E070E0EA14FB0489
:100700000C051D0540F0282B392B4A2B5B2BEA18D2
:10071000FB080C091D09B695A79597958795EE0CD2
:10072000FF1C001F111F6F5F7F4F6F31710531F785
:10073000DA01C9018F779070A070B0708034910594
:10074000A105B10561F427FD0AC0E114F10401051A
:10075000110529F0205C3F4F4F4F5F4F20782D87C8
:100760003E874F87588BBE01675F7F4FCB010E944A
:10077000EE046896EAE00C945C08A8E1B0E0E3ECD3
:10078000F3E00C94440869837A838B839C832D83E4
:100790003E834F83588789E0E82EF12CEC0EFD1E36
:1007A000CE010196B7010E94C3058E010F5E1F4F57
:1007B000CE010596B8010E94C3058985823040F0BC
:1007C0008989823028F0C701B8010E943B0601C028
:1007D0008FEF6896E6E00C946008A8E0B0E0E3EFE5
:1007E000F3E00C9441089B01AC0183E08983DA01BA
:1007F000C9018827B7FD83959927AA27BB27B82E5B
:10080000211531054105510519F482E089833AC06B
:100810008823A9F0203080E0380780E0480780E88E
:10082000580729F460E070E080E09FEC30C0EE24CF
:10083000FF248701E21AF30A040B150B02C07901A9
:100840008A018EE1C82ED12CDC82CB82ED82FE8221
:100850000F831887C801B7010E949F0401971816DB
:10086000190684F4082E04C0EE0CFF1C001F111F93
:100870000A94D2F7ED82FE820F831887C81AD90A2C
:10088000DC82CB82BA82CE0101960E94EE042896C9
:10089000E9E00C945D08ACE0B0E0E1E5F4E00C9434
:1008A000480869837A838B839C83CE010196BE01BD
:1008B0006B5F7F4F0E94C3058D81823061F1823072
:1008C00050F1843021F48E81882351F12EC02F8184
:1008D000388537FD20C06E812F3131051CF066232D
:1008E000F9F023C08EE190E0821B930B29853A85B5
:1008F0004B855C8504C056954795379527958A9515
:10090000D2F76623B1F050954095309521953F4F31
:100910004F4F5F4F0EC020E030E040E050E009C094
:100920002FEF3FEF4FEF5FE704C020E030E040E003
:1009300050E8B901CA012C96E2E00C946408EF92E9
:10094000FF920F931F937B018C0180E0E81680E0FB
:10095000F80681E0080780E0180788F48FEFE816B2
:10096000F1040105110531F028F088E090E0A0E0E5
:10097000B0E017C080E090E0A0E0B0E012C080E0FE
:10098000E81680E0F80680E0080781E0180728F004
:1009900088E190E0A0E0B0E004C080E190E0A0E059
:1009A000B0E020E230E040E050E0281B390B4A0B79
:1009B0005B0B04C016950795F794E7948A95D2F7D8
:1009C000F701E458FF4F8081281B31094109510983
:1009D000C9011F910F91FF90EF900895DF92EF9260
:1009E000FF920F931F93FC01E480F580068117812D
:1009F000D1808081823048F480E090E0A0E1B0E0D6
:100A0000E82AF92A0A2B1B2BA5C0843009F49FC0C1
:100A1000823021F4EE24FF24870105C0E114F104A3
:100A20000105110519F4E0E0F0E096C062817381E0
:100A30009FEF623879070CF05BC022E83FEF261B7E
:100A4000370B2A3131052CF020E030E040E050E057
:100A50002AC0B801A701022E04C076956795579564
:100A600047950A94D2F781E090E0A0E0B0E004C09E
:100A7000880F991FAA1FBB1F2A95D2F70197A109BA
:100A8000B1098E219F21A023B1230097A105B105B3
:100A900021F081E090E0A0E0B0E09A01AB01282BCA
:100AA000392B4A2B5B2BDA01C9018F779070A0702C
:100AB000B07080349105A105B10539F427FF09C054
:100AC000205C3F4F4F4F5F4F04C0215C3F4F4F4F63
:100AD0005F4FE0E0F0E02030A0E03A07A0E04A07F6
:100AE000A0E45A0710F0E1E0F0E079018A0127C0A4
:100AF0006038710564F5FB01E158FF4FD801C7016B
:100B00008F779070A070B07080349105A105B10509
:100B100039F4E7FE0DC080E490E0A0E0B0E004C04E
:100B20008FE390E0A0E0B0E0E80EF91E0A1F1B1F63
:100B300017FF05C016950795F794E794319687E05F
:100B400016950795F794E7948A95D1F705C0EE249A
:100B5000FF248701EFEFF0E06E2F6795662767951A
:100B6000902F9F77D794DD24D7948E2F8695492F89
:100B7000462B582F5D29B701CA011F910F91FF9095
:100B8000EF90DF900895FC01DB01408151812281CB
:100B9000622F6F7770E0221F2227221F9381892FF7
:100BA000880F822B282F30E0991F9927991F1196C3
:100BB0009C93119721153105A9F541155105610542
:100BC000710511F482E037C082E89FEF13969C9381
:100BD0008E9312979A01AB0167E0220F331F441FD7
:100BE000551F6A95D1F783E08C930DC0220F331FF8
:100BF000441F551F12968D919C9113970197139640
:100C00009C938E931297203080E0380780E048074D
:100C100080E4580758F314962D933D934D935C93BD
:100C2000179708952F3F310579F441155105610556
:100C3000710519F484E08C93089564FF03C081E08A
:100C40008C9312C01C9210C02F57304013963C93C7
:100C50002E93129783E08C9387E0440F551F661FF5
:100C6000771F8A95D1F7706414964D935D936D93B9
:100C70007C93179708951F93DC01FB019C919230A0
:100C800008F447C08081823008F443C0943051F4A6
:100C900011961C91843099F58181682F70E0611B59
:100CA00071093FC0843021F0923031F48230B9F1C3
:100CB0008181882389F12DC011961C911197823072
:100CC000F1F081811817D9F412962D913C91139768
:100CD000828193818217930794F028173907BCF01B
:100CE00014968D919D910D90BC91A02D24813581FC
:100CF00046815781281739074A075B0718F41123E3
:100D000041F00AC082179307A407B50740F41123E6
:100D100019F061E070E005C06FEF7FEF02C060E0A6
:100D200070E0CB011F91089580FF02C0C29A01C0FC
:100D3000C29881FF02C0C39A01C0C39882FF02C05B
:100D4000C49A01C0C49883FF02C0C59A0895C5988B
:100D500008951F93182FC19A82958F700E94940650
:100D6000C198C19A812F0E949406C19885E88A95FE
:100D7000F1F71F910895C0980E94A9060895C09A9E
:100D80000E94A9060895CF93DF93EC0103C021963A
:100D90000E94BF0688818823D1F7DF91CF91089503
:100DA0006295660F660F607C680F862F80680E94D0
:100DB000BB06089581E00E94BB0680EA9FE0019790
:100DC000F1F7089582E00E94BB0680EA9FE0019758
:100DD000F1F708951F93CF93DF93BA9ABB9ABC9A09
:100DE000BD9AB99AB89A80E395E70197F1F7C09850
:100DF000C19810E0C0E1D7E2C19A83E00E94940656
:100E0000C198CE010197F1F71F5F1330A9F7C19A7E
:100E100082E00E949406C19880ED97E00197F1F777
:100E200088E20E94BB0688E00E94BB0681E00E9427
:100E3000BB0680EA9FE00197F1F786E00E94BB06BF
:100E40008CE00E94BB06DF91CF911F9108953E9ADE
:100E50003F98309A319A329A379A389839983A9816
:100E60003B983C980895369A3699FECF24B135B117
:100E7000C9010895AA2797FDA095BA2FBC01CD01FD
:100E80000E94ED032BE43CE340EA5BE30E9417027F
:100E900020E030E048EC52E40E9417020E949A08D9
:100EA00020E030E048EC52E40E94110320E030E002
:100EB00048EC52E40E9417020E944100CB010895C1
:100EC0002F923F924F925F926F927F928F929F925A
:100ED000AF92BF92CF92DF92EF92FF920F931F9348
:100EE000DF93CF93CDB7DEB7A8970FB6F894DEBFE8
:100EF0000FBECDBF0E94EA060E94E2060E94DA06FB
:100F00000E942707A39A5E010894A11CB11C37E632
:100F1000232E30E0332E20E6422E20E0522E95E1A3
:100F2000C92ED12CCC0EDD1E88EC682E712C0E94AF
:100F3000DA06369A3699FECF84B195B10E943A0707
:100F40007C0164E670E00E941108962E872EC7018E
:100F500064E670E00E9411088C018A309105C4F4A7
:100F600080E060E00E94D0068DB79EB708970FB66C
:100F7000F8949EBF0FBE8DBFEDB7FEB73196ADB7EB
:100F8000BEB71296BC92AE9211975382428215C0A0
:100F900080E060E00E94D006ADB7BEB718970FB6EC
:100FA000F894BEBF0FBEADBFEDB7FEB73196129637
:100FB000BC92AE92119733822282948285821783EB
:100FC00006830E9476088DB79EB708960FB6F894F0
:100FD0009EBF0FBE8DBFC5010E94C3069BEFE916E1
:100FE000F1044CF0AB9A80E061E00E94D006C601AB
:100FF0006DE670E008C0AB9880E061E00E94D0062A
:10100000C60160E770E00E946F08C6010E94C30637
:1010100088EE93E0F3013197F1F7019709F487CF58
:10102000F9CF97FB092E07260AD077FD04D00CD004
:1010300006D000201AF4709561957F4F0895F6F759
:10104000909581959F4F0895AA1BBB1B51E107C046
:10105000AA1FBB1FA617B70710F0A61BB70B881F48
:10106000991F5A95A9F780959095BC01CD010895D7
:101070002F923F924F925F926F927F928F929F92A8
:10108000AF92BF92CF92DF92EF92FF920F931F9396
:10109000CF93DF93CDB7DEB7CA1BDB0B0FB6F89447
:1010A000DEBF0FBECDBF09942A88398848885F8487
:1010B0006E847D848C849B84AA84B984C884DF80F8
:1010C000EE80FD800C811B81AA81B981CE0FD11DDC
:1010D0000FB6F894DEBF0FBECDBFED010895FB0142
:1010E000DC0101900D920020E1F70895AEE0B0E040
:1010F000ECE7F8E00C9446080D891E8986E08C83A5
:101100001A8309838FEF9FE79E838D839E01275E5D
:101110003F4FCE0101966F89788DA9010E94F40896
:101120002F813885020F131FF80110822E96E4E0FC
:101130000C9462083BD080F09F3740F491110EF080
:101140004DC060E070E080E89FEB089526F41B1628
:10115000611D711D811D01C01BC0882371F477239F
:1011600021F09850872B762F07C0662311F499271A
:101170000DC09051862B70E060E02AF09A95660FC2
:10118000771F881FDAF7880F9695879597F9089546
:101190009F3F31F0915020F4879577956795B795EB
:1011A000880F911D9695879597F90895A2D2A0F082
:1011B000BEE7B91788F4BB279F3860F41616B11D37
:1011C000672F782F8827985FF7CF86957795679553
:1011D000B11D93959639C8F30895E894BB27662707
:1011E0007727CB0197F90895ABE0B0E0EAEFF8E09C
:1011F0000C9438083C012B015A01FC01178216821D
:10120000838181FD03C06FEF7FEFC6C19AE0892E15
:101210001E010894211C311CF3012381F20123FDDE
:10122000859123FF81912F01882309F4B2C1853272
:1012300039F423FD859123FF81912F01853229F413
:1012400090E0B3010E94E70AE7CF982FFF24EE2435
:101250009924FFE1FF15D0F09B3269F09C3228F40D
:10126000903259F0933291F40EC09D3249F0903390
:1012700069F441E024C052E0F52A84E0F82A28C04D
:1012800098E0F92A25C0E0E1FE2A22C0F7FC29C037
:10129000892F80538A3070F4F6FE05C0989C902CFC
:1012A0001124980E15C0E89CE02C1124E80EF0E201
:1012B000FF2A0EC09E3229F4F6FC6BC140E4F42AEA
:1012C00007C09C3619F450E8F52A02C0983649F454
:1012D000F20123FD959123FF91912F01992309F0AC
:1012E000B8CF892F8554833018F08052833038F47A
:1012F00044E050E0A40EB51E5FE359830FC093365F
:1013000031F0933779F0933509F056C020C0F501DC
:101310008081898342E050E0A40EB51E610101E0A6
:1013200010E012C0F501C080D180F6FC03C06FEF61
:101330007FEF02C0692D70E042E050E0A40EB51EC0
:10134000C6010E94DC0A8C015FE7F52214C0F5019A
:10135000C080D180F6FC03C06FEF7FEF02C0692D23
:1013600070E042E050E0A40EB51EC6010E94D10A12
:101370008C0150E8F52AF3FE07C01AC080E290E025
:10138000B3010E94E70AEA948E2D90E0081719072E
:10139000A8F30EC0F601F7FC8591F7FE81916F016D
:1013A00090E0B3010E94E70AE110EA940150104076
:1013B0000115110579F7EAC0943611F0993669F5EF
:1013C000F7FE08C0F501208131814281538184E01C
:1013D00090E00AC0F501808191819C01442737FD8E
:1013E0004095542F82E090E0A80EB91E9FE6F922A6
:1013F00057FF09C050954095309521953F4F4F4F6D
:101400005F4FE0E8FE2ACA01B901A1012AE030E0FD
:101410000E94130BD82ED21840C0953729F41F2DE7
:101420001F7E2AE030E01DC01F2D197F9F3661F01E
:10143000903720F4983509F0ACC00FC0903739F0E0
:10144000983709F0A6C004C028E030E00AC0106157
:1014500014FD146020E130E004C014FD166020E1AA
:1014600032E017FF08C0F5016081718182819381AC
:1014700044E050E008C0F50180819181BC0180E02A
:1014800090E042E050E0A40EB51EA1010E94130BB3
:10149000D82ED2188FE7F82EF122F6FE0BC05EEFA1
:1014A000F522D91438F4F4FE07C0F2FC05C08FEE23
:1014B000F82202C01D2D01C0192DF4FE0DC0FE0141
:1014C000ED0DF11D8081803319F499EEF92208C0E9
:1014D0001F5FF2FE05C003C08F2D867809F01F5FE5
:1014E0000F2DF3FC14C0F0FE0FC01E1510F09D2C44
:1014F0000BC09D2C9E0C911A1E2D06C080E290E020
:10150000B3010E94E70A1F5F1E15C0F304C01E1539
:1015100010F4E11A01C0EE2404FF0FC080E390E054
:10152000B3010E94E70A02FF1DC001FD03C088E766
:1015300090E00EC088E590E00BC0802F867891F097
:1015400001FF02C08BE201C080E2F7FC8DE290E077
:10155000B3010E94E70A06C080E390E0B3010E9455
:10156000E70A9A94D914C0F3DA94F101ED0DF11D54
:10157000808190E0B3010E94E70ADD20A9F706C050
:1015800080E290E0B3010E94E70AEA94EE20C1F7FE
:1015900043CEF30166817781CB012B96E2E10C9477
:1015A0005408FC010590615070400110D8F78095F7
:1015B00090958E0F9F1F0895FC016150704001901F
:1015C0000110D8F7809590958E0F9F1F08950F9367
:1015D0001F93CF93DF938C01EB018B8181FF1BC0A5
:1015E00082FF0DC02E813F818C819D812817390794
:1015F00064F4E881F9810193F983E88306C0E88502
:10160000F985802F0995892B31F48E819F81019670
:101610009F838E8302C00FEF1FEFC801DF91CF9130
:101620001F910F910895FA01AA27283051F1203116
:1016300081F1E8946F936E7F6E5F7F4F8F4F9F4F66
:10164000AF4FB1E03ED0B4E03CD0670F781F891FA8
:101650009A1FA11D680F791F8A1F911DA11D6A0F76
:10166000711D811D911DA11D20D009F468943F9129
:101670002AE0269F11243019305D3193DEF6CF0128
:101680000895462F4770405D4193B3E00FD0C9F7EE
:10169000F6CF462F4F70405D4A3318F0495D31FD5B
:1016A0004052419302D0A9F7EACFB4E0A6959795AE
:1016B000879577956795BA95C9F700976105710584
:1016C00008959B01AC010A2E0694579547953795CE
:1016D0002795BA95C9F7620F731F841F951FA01D28
:1016E000089557FD9058440F551F59F05F3F71F012
:1016F0004795880F97FB991F61F09F3F79F0879579
:101700000895121613061406551FF2CF4695F1DF01
:1017100008C0161617061806991FF1CF8695710591
:0A172000610508940895F894FFCFC6
:10172A0025642E3025640025642E2564004F6E0042
:10173A004F6666000000000000000000000102027F
:10174A00030303030404040404040404050505054F
:10175A00050505050505050505050505060606062B
:10176A00060606060606060606060606060606060F
:10177A0006060606060606060606060607070707FB
:10178A0007070707070707070707070707070707DF
:10179A0007070707070707070707070707070707CF
:1017AA0007070707070707070707070707070707BF
:1017BA0007070707070707070707070708080808AB
:1017CA00080808080808080808080808080808088F
:1017DA00080808080808080808080808080808087F
:1017EA00080808080808080808080808080808086F
:1017FA00080808080808080808080808080808085F
:10180A00080808080808080808080808080808084E
:10181A00080808080808080808080808080808083E
:10182A00080808080808080808080808080808082E
:0C183A0008080808080808080808080842
:00000001FF
