:100000000C942A000C9447000C9447000C94470071
:100010000C9447000C9447000C9447000C94A707DD
:100020000C9447000C9447000C9447000C94470034
:100030000C9447000C9447000C9447000C94470024
:100040000C9447000C9447000C9447000C94470014
:100050000C94470011241FBECFE5D8E0DEBFCDBF12
:1000600011E0A0E6B0E0E6E7FEE102C005900D92E7
:10007000A63FB107D9F711E0A6EFB1E001C01D928C
:10008000A73FB107E1F70E94130B0C94390F0C94B2
:100090000000EF92FF920F931F937B018C0120E0F1
:1000A00030E040E05FE40E94C50388238CF0C80183
:1000B000B70120E030E040E05FE40E94C1010E940F
:1000C00053049B01AC01205030404040504806C0D2
:1000D000C801B7010E9453049B01AC01B901CA01D8
:1000E0001F910F91FF90EF900895A0E0B0E0EBE733
:1000F000F0E00C94DE0BDC012B01FA019C919230B4
:1001000008F439C1EB018881823008F433C194309E
:1001100069F4843009F02FC111969C91119789815F
:10012000981709F428C1A3EDB0E025C1843009F483
:1001300021C18230A9F4923009F01DC19A01AD01AC
:1001400088E0EA010990AE01E90109929E0181501F
:10015000C1F7E201898111969C918923818308C1AD
:10016000923009F407C112962D903C901397EB0141
:100170008A819B811496AD90BD90CD90DC901797AD
:10018000EC80FD800E811F819101281B390BB90184
:1001900037FF04C066277727621B730B6032710537
:1001A0000CF061C0121613066CF537014801062EDB
:1001B00004C096948794779467940A94D2F721E0C8
:1001C00030E040E050E004C0220F331F441F551FB1
:1001D0006A95D2F721503040404050402E213F21B7
:1001E00040235123211531054105510521F021E01E
:1001F00030E040E050E079018A01E628F72808293C
:1002000019293CC0232BD1F1260E371E350146019A
:10021000062E04C096948794779467940A94D2F734
:1002200021E030E040E050E004C0220F331F441FC3
:10023000551F6A95D2F721503040404050402A2146
:100240003B214C215D21211531054105510521F04E
:1002500021E030E040E050E059016A01A628B728CB
:10026000C828D9280BC0821593052CF01C01AA249C
:10027000BB24650103C0EE24FF24870111969C91E5
:10028000D20111968C91981709F445C0992339F041
:10029000A80197012A193B094C095D0906C0A6016E
:1002A00095012E193F09400B510B57FD08C01182D3
:1002B0003382228224833583468357831DC081E0A5
:1002C00081833382228288279927DC01821B930B4A
:1002D000A40BB50B84839583A683B7830DC0220F2F
:1002E000331F441F551F24833583468357838281E0
:1002F000938101979383828324813581468157813D
:10030000DA01C9010197A109B1098F5F9F4FAF4F72
:10031000BF4328F30BC0918333822282EA0CFB1C7B
:100320000C1D1D1DE482F5820683178383E0808304
:10033000248135814681578157FF1AC0C901AA27F8
:1003400097FDA095BA2F81709070A070B0705695EF
:10035000479537952795822B932BA42BB52B848318
:100360009583A683B7838281938101969383828349
:10037000DF0101C0D201CD01CDB7DEB7E2E10C94BF
:10038000FA0BA0E2B0E0E7ECF1E00C94EA0B698331
:100390007A838B839C832D833E834F835887E9E048
:1003A000EE2EF12CEC0EFD1ECE010196B7010E943F
:1003B000CB058E010F5E1F4FCE010596B8010E943E
:1003C000CB058A8991E089278A8BC701B801AE01E4
:1003D000475E5F4F0E9475000E94F604A096E6E01B
:1003E0000C94060CA0E2B0E0E8EFF1E00C94EA0B0C
:1003F00069837A838B839C832D833E834F835887C5
:10040000F9E0EF2EF12CEC0EFD1ECE010196B701A6
:100410000E94CB058E010F5E1F4FCE010596B801DD
:100420000E94CB05C701B801AE01475E5F4F0E9435
:1004300075000E94F604A096E6E00C94060CA0E27B
:10044000B0E0E5E2F2E00C94DE0B69837A838B8303
:100450009C832D833E834F835887CE010196BE0136
:10046000675F7F4F0E94CB05CE010596BE016F5E90
:100470007F4F0E94CB059985923088F08989823020
:10048000C8F0943019F4823051F404C0843029F457
:10049000923081F483ED90E0C6C0923049F420E0C0
:1004A0009A858A89981321E02A87CE010996BBC0D4
:1004B000823049F420E09A858A89981321E02A8BBA
:1004C000CE014196B0C02D843E844F8458886D88FB
:1004D0007E888F88988CEE24FF248701AA24BB2471
:1004E000650140E050E060E070E0E0E0F0E0C10174
:1004F00081709070892BE9F0E60CF71C081D191D1E
:100500009A01AB012A0D3B1D4C1D5D1D80E090E062
:10051000A0E0B0E0E614F7040805190520F481E036
:1005200090E0A0E0B0E0BA01A901480F591F6A1F8E
:100530007B1FAA0CBB1CCC1CDD1C97FE08C081E0F5
:1005400090E0A0E0B0E0A82AB92ACA2ADB2A3196B6
:10055000E032F10549F0660C771C881C991C569412
:10056000479437942794C3CFFA85EA892B893C892D
:100570008B859C85280F391F2E5F3F4F17C0CA01FE
:1005800081709070892B61F016950795F794E79428
:1005900080E090E0A0E0B0E8E82AF92A0A2B1B2BC3
:1005A00076956795579547952F5F3F4F77FDE7CF36
:1005B0000CC0440F551F661F771F17FD4160EE0CDE
:1005C000FF1C001F111F21503040403090E05907A0
:1005D00090E0690790E4790760F32B8F3C8FDB0193
:1005E000CA018F779070A070B07080349105A1051A
:1005F000B10561F447FD0AC0E114F10401051105DC
:1006000029F0405C5F4F6F4F7F4F40781A8EFE1786
:1006100011F081E08A8F4D8F5E8F6F8F78A383E01A
:10062000898FCE0149960E94F604A096E2E10C94CF
:10063000FA0BA8E1B0E0EFE1F3E00C94E60B69837C
:100640007A838B839C832D833E834F835887B9E0C5
:10065000EB2EF12CEC0EFD1ECE010196B7010E948F
:10066000CB058E010F5E1F4FCE010596B8010E948B
:10067000CB052985223008F47EC03989323010F448
:10068000B8017CC08A859A8989278A87243011F02D
:10069000223031F4231709F06EC063ED70E06EC0B4
:1006A000343039F41D861E861F86188A1C861B86E8
:1006B00004C0323021F484E08987B7015FC02B8504
:1006C0003C858B899C89281B390B3C872B87ED84C3
:1006D000FE840F851889AD88BE88CF88D88CEA142F
:1006E000FB040C051D0540F4EE0CFF1C001F111F40
:1006F000215030403C872B8720E030E040E050E044
:1007000080E090E0A0E0B0E460E070E0EA14FB0478
:100710000C051D0540F0282B392B4A2B5B2BEA18C2
:10072000FB080C091D09B695A79597958795EE0CC2
:10073000FF1C001F111F6F5F7F4F6F31710531F775
:10074000DA01C9018F779070A070B0708034910584
:10075000A105B10561F427FD0AC0E114F10401050A
:10076000110529F0205C3F4F4F4F5F4F20782D87B8
:100770003E874F87588BBE01675F7F4FCB010E943A
:10078000F6046896EAE00C94020CA8E1B0E0EBEC09
:10079000F3E00C94EA0B69837A838B839C832D832B
:1007A0003E834F83588789E0E82EF12CEC0EFD1E26
:1007B000CE010196B7010E94CB058E010F5E1F4F3F
:1007C000CE010596B8010E94CB058985823040F0A4
:1007D0008989823028F0C701B8010E94430601C010
:1007E0008FEF6896E6E00C94060CA8E0B0E0EBEF23
:1007F000F3E00C94E70B9B01AC0183E08983DA0101
:10080000C9018827B7FD83959927AA27BB27B82E4A
:10081000211531054105510519F482E089833AC05B
:100820008823A9F0203080E0380780E0480780E87E
:10083000580729F460E070E080E09FEC30C0EE24BF
:10084000FF248701E21AF30A040B150B02C0790199
:100850008A018EE1C82ED12CDC82CB82ED82FE8211
:100860000F831887C801B7010E94A70401971816C3
:10087000190684F4082E04C0EE0CFF1C001F111F83
:100880000A94D2F7ED82FE820F831887C81AD90A1C
:10089000DC82CB82BA82CE0101960E94F6042896B1
:1008A000E9E00C94030CACE0B0E0E9E5F4E00C9472
:1008B000EE0B69837A838B839C83CE010196BE0104
:1008C0006B5F7F4F0E94CB058D81823061F182305A
:1008D00050F1843021F48E81882351F12EC02F8174
:1008E000388537FD20C06E812F3131051CF066231D
:1008F000F9F023C08EE190E0821B930B29853A85A5
:100900004B855C8504C056954795379527958A9504
:10091000D2F76623B1F050954095309521953F4F21
:100920004F4F5F4F0EC020E030E040E050E009C084
:100930002FEF3FEF4FEF5FE704C020E030E040E0F3
:1009400050E8B901CA012C96E2E00C940A0CEF922F
:10095000FF920F931F937B018C0180E0E81680E0EB
:10096000F80681E0080780E0180788F48FEFE816A2
:10097000F1040105110531F028F088E090E0A0E0D5
:10098000B0E017C080E090E0A0E0B0E012C080E0EE
:10099000E81680E0F80680E0080781E0180728F0F4
:1009A00088E190E0A0E0B0E004C080E190E0A0E049
:1009B000B0E020E230E040E050E0281B390B4A0B69
:1009C0005B0B04C016950795F794E7948A95D2F7C8
:1009D000F701E552FF4F8081281B31094109510978
:1009E000C9011F910F91FF90EF900895DF92EF9250
:1009F000FF920F931F93FC01E480F580068117811D
:100A0000D1808081823048F480E090E0A0E1B0E0C5
:100A1000E82AF92A0A2B1B2BA5C0843009F49FC0B1
:100A2000823021F4EE24FF24870105C0E114F10493
:100A30000105110519F4E0E0F0E096C062817381D0
:100A40009FEF623879070CF05BC022E83FEF261B6E
:100A5000370B2A3131052CF020E030E040E050E047
:100A60002AC0B801A701022E04C076956795579554
:100A700047950A94D2F781E090E0A0E0B0E004C08E
:100A8000880F991FAA1FBB1F2A95D2F70197A109AA
:100A9000B1098E219F21A023B1230097A105B105A3
:100AA00021F081E090E0A0E0B0E09A01AB01282BBA
:100AB000392B4A2B5B2BDA01C9018F779070A0701C
:100AC000B07080349105A105B10539F427FF09C044
:100AD000205C3F4F4F4F5F4F04C0215C3F4F4F4F53
:100AE0005F4FE0E0F0E02030A0E03A07A0E04A07E6
:100AF000A0E45A0710F0E1E0F0E079018A0127C094
:100B00006038710564F5FB01E158FF4FD801C7015A
:100B10008F779070A070B07080349105A105B105F9
:100B200039F4E7FE0DC080E490E0A0E0B0E004C03E
:100B30008FE390E0A0E0B0E0E80EF91E0A1F1B1F53
:100B400017FF05C016950795F794E794319687E04F
:100B500016950795F794E7948A95D1F705C0EE248A
:100B6000FF248701EFEFF0E06E2F6795662767950A
:100B7000902F9F77D794DD24D7948E2F8695492F79
:100B8000462B582F5D29B701CA011F910F91FF9085
:100B9000EF90DF900895FC01DB01408151812281BB
:100BA000622F6F7770E0221F2227221F9381892FE7
:100BB000880F822B282F30E0991F9927991F1196B3
:100BC0009C93119721153105A9F541155105610532
:100BD000710511F482E037C082E89FEF13969C9371
:100BE0008E9312979A01AB0167E0220F331F441FC7
:100BF000551F6A95D1F783E08C930DC0220F331FE8
:100C0000441F551F12968D919C911397019713962F
:100C10009C938E931297203080E0380780E048073D
:100C200080E4580758F314962D933D934D935C93AD
:100C3000179708952F3F310579F441155105610546
:100C4000710519F484E08C93089564FF03C081E07A
:100C50008C9312C01C9210C02F57304013963C93B7
:100C60002E93129783E08C9387E0440F551F661FE5
:100C7000771F8A95D1F7706414964D935D936D93A9
:100C80007C93179708951F93DC01FB019C91923090
:100C900008F447C08081823008F443C0943051F496
:100CA00011961C91843099F58181682F70E0611B49
:100CB00071093FC0843021F0923031F48230B9F1B3
:100CC0008181882389F12DC011961C911197823062
:100CD000F1F081811817D9F412962D913C91139758
:100CE000828193818217930794F028173907BCF00B
:100CF00014968D919D910D90BC91A02D24813581EC
:100D000046815781281739074A075B0718F41123D2
:100D100041F00AC082179307A407B50740F41123D6
:100D200019F061E070E005C06FEF7FEF02C060E096
:100D300070E0CB011F91089580FF02C0C29A01C0EC
:100D4000C29881FF02C0C39A01C0C39882FF02C04B
:100D5000C49A01C0C49883FF02C0C59A0895C5987B
:100D600008951F93182FC19A82958F700E949C0638
:100D7000C198C19A812F0E949C06C19885E88A95E6
:100D8000F1F71F910895C0980E94B1060895C09A86
:100D90000E94B1060895CF93DF93EC0103C0219622
:100DA0000E94C70688818823D1F7DF91CF910895EB
:100DB0006295660F660F607C680F862F80680E94C0
:100DC000C306089581E00E94C30680EA9FE0019770
:100DD000F1F7089582E00E94C30680EA9FE0019740
:100DE000F1F708951F93CF93DF93BA9ABB9ABC9AF9
:100DF000BD9AB99AB89A80E395E70197F1F7C09840
:100E0000C19810E0C0E1D7E2C19A83E00E949C063D
:100E1000C198CE010197F1F71F5F1330A9F7C19A6E
:100E200082E00E949C06C19880ED97E00197F1F75F
:100E300088E20E94C30688E00E94C30681E00E9407
:100E4000C30680EA9FE00197F1F786E00E94C3069F
:100E50008CE00E94C306DF91CF911F9108958FEF20
:100E600084BB15BA08958A3030F4E82FF0E0E552DB
:100E7000FE4F808107C0833619F48091F60102C0CD
:100E80008091E50185BB0895CF93DF938B9A8C9A6F
:100E90008D9A8E9A8F98939A949A959A969A979AF1
:100EA0006FEF43E050E0C1E0D0E0A8ECB0E082B3E7
:100EB0009E01042E02C0220F331F0A94E2F7922FE4
:100EC0009095982392BB879909C080ED97E0FD012A
:100ED0003197F1F70197D9F7642F635082B3282B2C
:100EE00022BB4F5F5F4F4730510509F7862FDF91D7
:100EF000CF9108958D9A8F989598979A879B02C065
:100F00008FEF089580ED97E028EC30E0F9013197FC
:100F1000F1F70197D9F782E008953E9A3F98309A09
:100F2000319A329A379A389839983A983B983C983F
:100F300008958EB588608EBD8EB584608EBD82E1C9
:100F40009AE79BBD8ABD89B7806189BF08951F92CA
:100F50000F920FB60F9211248F9388B3805888BBDD
:100F60008F910F900FBE0F901F90189508954F927C
:100F70005F926F927F928F929F92AF92BF92CF9229
:100F8000DF92EF92FF920F931F93DF93CF93CDB732
:100F9000DEB764970FB6F894DEBF0FBECDBF78946E
:100FA0000E94E206BF9AC7988A9A0BE314E17E0179
:100FB0000894E11CF11C46E7442E40E0542E3FE625
:100FC000632E30E0732E28E6822E20E0922E90E6EB
:100FD000A92E90E0B92E88ECC82ED12C1A3080F5BD
:100FE0000A30C0F480E060E00E94D8068DB79EB75A
:100FF00008970FB6F8949EBF0FBE8DBFEDB7FEB732
:101000003196ADB7BEB71296FC92EE921197B382AD
:10101000A28243C080E060E00E94D806ADB7BEB7B0
:1010200018970FB6F894BEBF0FBEADBFEDB7FEB7B1
:1010300031961296FC92EE921197938282822DC085
:101040000A30B0F480E060E00E94D806ADB7BEB7C9
:1010500018970FB6F894BEBF0FBEADBFEDB7FEB781
:1010600031961296FC92EE9211977382628215C0AD
:1010700080E060E00E94D806ADB7BEB718970FB603
:10108000F894BEBF0FBEADBFEDB7FEB73196129656
:10109000FC92EE921197538242820483158216834A
:1010A00017820E941C0C8DB79EB708960FB6F89455
:1010B0009EBF0FBE8DBFC7010E94CB06812F6AE085
:1010C0000E94AB0B892F0E943307812F8F5F6CE347
:1010D0000E94AB0B192F992329F4802F8F5F0E9458
:1010E000AB0B092F929A80ED97E0F6013197F1F75B
:1010F0000197D9F79298B79908C088B3805888BBF0
:1011000004C00E947A07823019F0B799FACF66CFEF
:101110000E94E20683E60E94330764960FB6F894B5
:10112000DEBF0FBECDBFCF91DF911F910F91FF901A
:10113000EF90DF90CF90BF90AF909F908F907F9077
:101140006F905F904F9008956F927F929F92AF92B1
:10115000BF92CF92DF92EF92FF920F931F93DF9394
:10116000CF93CDB7DEB7A3970FB6F894DEBF0FBE0F
:10117000CDBFDE011196E6EEF1E08FE001900D9219
:101180008150E1F7889A899A8A9A0E94E20680E063
:1011900060E00E94D80600D000D000D0EDB7FEB7C6
:1011A000319660E1A62EB12CAC0EBD1EADB7BEB718
:1011B0001296BC92AE9211970CE710E01383028353
:1011C000158214820E941C0C8DB79EB706960FB62E
:1011D000F8949EBF0FBE8DBFC5010E94CB06EE24C2
:1011E000FF243E010894611C711C6501902E012FA3
:1011F0009098919892988E2D0E943307E0FC02C03F
:10120000909A01C0919AF301808190E0E816F90666
:1012100009F4929A3196EC15FD05B1F70E94440746
:10122000882349F5C701019663E370E00E94B70B7C
:101230007C010E94E20680E060E00E94D80600D0B7
:1012400000D000D0EDB7FEB73196ADB7BEB712965D
:10125000DC92CE92119792820383F582E4820E94FF
:101260001C0C8DB79EB706960FB6F8949EBF0FBEA6
:101270008DBFC6012EC0813079F50894E108F108D0
:101280009FEFE9169FEFF90619F452E3E52EF12CD2
:101290000E94E20680E060E00E94D80600D000D004
:1012A00000D0EDB7FEB73196ADB7BEB71296DC925F
:1012B000CE92119792820383F582E4820E941C0CE5
:1012C0008DB79EB706960FB6F8949EBF0FBE8DBF22
:1012D000C5010E94CB068CCF823009F089CF90984F
:1012E0009198929883E60E943307A3960FB6F894DC
:1012F000DEBF0FBECDBFCF91DF911F910F91FF9049
:10130000EF90DF90CF90BF90AF909F907F906F90C5
:101310000895EF92FF920F931F93DF93CF93CDB772
:10132000DEB764970FB6F894DEBF0FBECDBF369A16
:101330003699FECF04B115B180E060E00E94D80676
:1013400000D000D000D0EDB7FEB731967E010894F2
:10135000E11CF11CADB7BEB71296FC92EE9211974C
:101360008CE790E093838283158304830E941C0C96
:101370008DB79EB706960FB6F8949EBF0FBE8DBF71
:10138000C7010E94CB06C80164960FB6F894DEBF71
:101390000FBECDBFCF91DF911F910F91FF90EF90C6
:1013A00008950F931F93DF93CF93CDB7DEB7A89720
:1013B0000FB6F894DEBF0FBECDBF0E94E20680E0FC
:1013C00060E00E94D8068E010B5E1F4FC8016FE7D8
:1013D00070E00E94150CC8010E94CB0680E061E01D
:1013E0000E94D8068DB79EB708970FB6F8949EBF97
:1013F0000FBE8DBFEDB7FEB731968E010F5F1F4F49
:10140000ADB7BEB712961C930E93119780E990E08A
:101410009383828387E990E0958384838EE990E0CB
:10142000978386830E941C0C8DB79EB708960FB6D3
:10143000F8949EBF0FBE8DBFC8010E94CB0680E40A
:101440009CE928EC30E0F9013197F1F70197D9F7E1
:101450000E94E206A8960FB6F894DEBF0FBECDBF7D
:10146000CF91DF911F910F9108950E94D1090895A6
:10147000AA2797FDA095BA2FBC01CD010E94F503C4
:101480002BE43CE340EA5BE30E941F0220E030E0F3
:1014900048EC52E40E941F020E94400C20E030E021
:1014A00048EC52E40E94190320E030E048EC52E49A
:1014B0000E941F020E944900CB0108956F927F9203
:1014C0008F929F92AF92BF92CF92DF92EF92FF9254
:1014D0000F931F93DF93CF93CDB7DEB764970FB60B
:1014E000F894DEBF0FBECDBF7E010894E11CF11C55
:1014F000FCEA6F2EF0E07F2EE8ECAE2EB12C75EA00
:10150000872E70E0972E73C00E94E2060E94890920
:101510000E94380A9C0164E670E00E94B70BD62E48
:10152000C72EC90164E670E00E94B70B8C018A30B7
:10153000910584F580E061E00E94D8068DB79EB7E2
:1015400008970FB6F8949EBF0FBE8DBFEDB7FEB7DC
:101550003196ADB7BEB71296FC92EE921197938278
:101560008282D482C582178306830E941C0C8DB7A9
:101570009EB708960FB6F8949EBF0FBE8DBFC701E9
:101580000E94CB0688EE93E0F5013197F1F70197C1
:10159000D9F72DC080E061E00E94D806ADB7BEB794
:1015A00018970FB6F894BEBF0FBEADBFEDB7FEB72C
:1015B00031961296FC92EE92119773826282D482D7
:1015C000C582178306830E941C0C8DB79EB70896B0
:1015D0000FB6F8949EBF0FBE8DBFC7010E94CB0609
:1015E00088EE93E0F5013197F1F70197D9F70E9462
:1015F0007A07823009F088CF0E94E20664960FB61F
:10160000F894DEBF0FBECDBFCF91DF911F910F9138
:10161000FF90EF90DF90CF90BF90AF909F908F9012
:101620007F906F900895EF92FF920F931F93DF9337
:10163000CF93CDB7DEB764970FB6F894DEBF0FBE79
:10164000CDBF8FEF84BB15BA0E94F2060E94EA0656
:101650000E948D070E9499070E94D10900E07E0137
:101660000894E11CF11C0E944407182F823030F4CA
:101670000E94E206112311F40F5F03C0113009F438
:101680000150802F65E00E94AB0B923071F19330D6
:1016900028F4992341F0913031F716C09330A9F125
:1016A000943009F744C080E060E00E94D806C7018A
:1016B00062EB70E00E94150CC7010E94CB0613304C
:1016C00091F60E94D10944C080E060E00E94D806F3
:1016D000C70167EB70E00E94150CC7010E94CB06A2
:1016E000133009F60E94A40833C080E060E00E9435
:1016F000D806C7016EEB70E00E94150CC7010E946E
:10170000CB06133009F0AFCF23C080E060E00E9429
:10171000D806C70165EC70E00E94150CC7010E9455
:10172000CB06133009F09FCF0E94B70711C080E0AD
:1017300060E00E94D806C7016BEC70E00E94150CB7
:10174000C7010E94CB06133009F08DCF0E945E0ABC
:101750000E94E20688CF991B79E004C0991F961772
:1017600008F0961B881F7A95C9F78095089597FB16
:10177000092E07260AD077FD04D00CD006D0002011
:101780001AF4709561957F4F0895F6F790958195BD
:101790009F4F0895AA1BBB1B51E107C0AA1FBB1F87
:1017A000A617B70710F0A61BB70B881F991F5A95ED
:1017B000A9F780959095BC01CD0108952F923F9295
:1017C0004F925F926F927F928F929F92AF92BF9251
:1017D000CF92DF92EF92FF920F931F93CF93DF93FD
:1017E000CDB7DEB7CA1BDB0B0FB6F894DEBF0FBE5A
:1017F000CDBF09942A88398848885F846E847D84A7
:101800008C849B84AA84B984C884DF80EE80FD80A8
:101810000C811B81AA81B981CE0FD11D0FB6F8941E
:10182000DEBF0FBECDBFED010895FB01DC010190CD
:101830000D920020E1F70895AEE0B0E0E2E2FCE0B6
:101840000C94EC0B0D891E8986E08C831A83098326
:101850008FEF9FE79E838D839E01275E3F4FCE01D2
:1018600001966F89788DA9010E949A0C2F81388585
:10187000020F131FF80110822E96E4E00C94080C5E
:101880003BD080F09F3740F491110EF04DC060E0E6
:1018900070E080E89FEB089526F41B16611D711D12
:1018A000811D01C01BC0882371F4772321F098505B
:1018B000872B762F07C0662311F499270DC090510E
:1018C000862B70E060E02AF09A95660F771F881FDC
:1018D000DAF7880F9695879597F908959F3F31F02D
:1018E000915020F4879577956795B795880F911D4E
:1018F0009695879597F90895A2D2A0F0BEE7B917FB
:1019000088F4BB279F3860F41616B11D672F782F17
:101910008827985FF7CF869577956795B11D939542
:101920009639C8F30895E894BB2766277727CB013B
:1019300097F90895ABE0B0E0E0EAFCE00C94DE0B30
:101940003C012B015A01FC0117821682838181FD23
:1019500003C06FEF7FEFC6C19AE0892E1E01089485
:10196000211C311CF3012381F20123FD859123FF0A
:1019700081912F01882309F4B2C1853239F423FD06
:10198000859123FF81912F01853229F490E0B301E5
:101990000E948D0EE7CF982FFF24EE249924FFE1BB
:1019A000FF15D0F09B3269F09C3228F4903259F048
:1019B000933291F40EC09D3249F0903369F441E0C6
:1019C00024C052E0F52A84E0F82A28C098E0F92AD9
:1019D00025C0E0E1FE2A22C0F7FC29C0892F8053F0
:1019E0008A3070F4F6FE05C0989C902C1124980E55
:1019F00015C0E89CE02C1124E80EF0E2FF2A0EC08E
:101A00009E3229F4F6FC6BC140E4F42A07C09C36F0
:101A100019F450E8F52A02C0983649F4F20123FD82
:101A2000959123FF91912F01992309F0B8CF892F28
:101A30008554833018F08052833038F444E050E00D
:101A4000A40EB51E5FE359830FC0933631F0933770
:101A500079F0933509F056C020C0F5018081898363
:101A600042E050E0A40EB51E610101E010E012C09A
:101A7000F501C080D180F6FC03C06FEF7FEF02C09C
:101A8000692D70E042E050E0A40EB51EC6010E9430
:101A9000820E8C015FE7F52214C0F501C080D18071
:101AA000F6FC03C06FEF7FEF02C0692D70E042E0EB
:101AB00050E0A40EB51EC6010E94770E8C0150E8BE
:101AC000F52AF3FE07C01AC080E290E0B3010E943D
:101AD0008D0EEA948E2D90E008171907A8F30EC01A
:101AE000F601F7FC8591F7FE81916F0190E0B3015B
:101AF0000E948D0EE110EA9401501040011511056D
:101B000079F7EAC0943611F0993669F5F7FE08C006
:101B1000F501208131814281538184E090E00AC047
:101B2000F501808191819C01442737FD4095542F18
:101B300082E090E0A80EB91E9FE6F92257FF09C087
:101B400050954095309521953F4F4F4F5F4FE0E8BE
:101B5000FE2ACA01B901A1012AE030E00E94B90EB3
:101B6000D82ED21840C0953729F41F2D1F7E2AE0A9
:101B700030E01DC01F2D197F9F3661F0903720F493
:101B8000983509F0ACC00FC0903739F0983709F09C
:101B9000A6C004C028E030E00AC0106114FD146043
:101BA00020E130E004C014FD166020E132E017FFB0
:101BB00008C0F501608171818281938144E050E029
:101BC00008C0F50180819181BC0180E090E042E095
:101BD00050E0A40EB51EA1010E94B90ED82ED21855
:101BE0008FE7F82EF122F6FE0BC05EEFF522D91436
:101BF00038F4F4FE07C0F2FC05C08FEEF82202C0F4
:101C00001D2D01C0192DF4FE0DC0FE01ED0DF11DBD
:101C10008081803319F499EEF92208C01F5FF2FE2B
:101C200005C003C08F2D867809F01F5F0F2DF3FCD0
:101C300014C0F0FE0FC01E1510F09D2C0BC09D2C83
:101C40009E0C911A1E2D06C080E290E0B3010E9406
:101C50008D0E1F5F1E15C0F304C01E1510F4E11A8F
:101C600001C0EE2404FF0FC080E390E0B3010E94A6
:101C70008D0E02FF1DC001FD03C088E790E00EC07D
:101C800088E590E00BC0802F867891F001FF02C0BC
:101C90008BE201C080E2F7FC8DE290E0B3010E948C
:101CA0008D0E06C080E390E0B3010E948D0E9A94E1
:101CB000D914C0F3DA94F101ED0DF11D808190E0AB
:101CC000B3010E948D0EDD20A9F706C080E290E0EE
:101CD000B3010E948D0EEA94EE20C1F743CEF301CA
:101CE00066817781CB012B96E2E10C94FA0BFC0123
:101CF0000590615070400110D8F7809590958E0F37
:101D00009F1F0895FC016150704001900110D8F7A9
:101D1000809590958E0F9F1F08950F931F93CF93DB
:101D2000DF938C01EB018B8181FF1BC082FF0DC013
:101D30002E813F818C819D812817390764F4E881C9
:101D4000F9810193F983E88306C0E885F985802F3E
:101D50000995892B31F48E819F8101969F838E8313
:101D600002C00FEF1FEFC801DF91CF911F910F91BC
:101D70000895FA01AA27283051F1203181F1E89421
:101D80006F936E7F6E5F7F4F8F4F9F4FAF4FB1E06E
:101D90003ED0B4E03CD0670F781F891F9A1FA11D69
:101DA000680F791F8A1F911DA11D6A0F711D811D6A
:101DB000911DA11D20D009F468943F912AE0269F2F
:101DC00011243019305D3193DEF6CF010895462F8E
:101DD0004770405D4193B3E00FD0C9F7F6CF462F6F
:101DE0004F70405D4A3318F0495D31FD40524193D8
:101DF00002D0A9F7EACFB4E0A69597958795779595
:101E00006795BA95C9F700976105710508959B011B
:101E1000AC010A2E06945795479537952795BA95A4
:101E2000C9F7620F731F841F951FA01D089557FDEA
:101E30009058440F551F59F05F3F71F04795880F38
:101E400097FB991F61F09F3F79F0879508951216CF
:101E500013061406551FF2CF4695F1DF08C016167B
:101E600017061806991FF1CF86957105610508942C
:061E70000895F894FFCF75
:101E76003025643A3025640025643A302564003004
:101E860025643A25640025643A25640025640050DB
:101E9600524F4752414D2050544D2032303231007E
:101EA60025732C2025730032353239303400323513
:101EB600323931350025642E3025640025642E25FF
:101EC6006400494E464F004C49435A425900535408
:101ED6004F504552005A45474152004D4945524ED2
:101EE600494B000000000000000000000102020350
:101EF600030303040404040404040405050505059A
:101F06000505050505050505050505060606060676
:101F1600060606060606060606060606060606065B
:101F26000606060606060606060606070707070746
:101F3600070707070707070707070707070707072B
:101F4600070707070707070707070707070707071B
:101F5600070707070707070707070707070707070B
:101F660007070707070707070707070808080808F6
:101F760008080808080808080808080808080808DB
:101F860008080808080808080808080808080808CB
:101F960008080808080808080808080808080808BB
:101FA60008080808080808080808080808080808AB
:101FB600080808080808080808080808080808089B
:101FC600080808080808080808080808080808088B
:101FD600080808080808080808080808080808087B
:101FE60008080808080808080808087E306D7933CC
:101FF6005B5F707F7B01020305070B0D1113171D35
:062006001F25292B2F000D
:04000003000013A244
:00000001FF
